:100000000C942A001895000018950000189500001F
:10001000189500001895000018950000189500002C
:10002000189500001895000018950000189500001C
:10003000189500001895000018950000189500000C
:1000400018950000189500001895000018950000FC
:10005000189500008FE58DBFC8E3E0E24E2E84E0E6
:100060008EBFD4E0F4E05F2EA89584B7082E877F7A
:1000700084BF88E1992781BD91BDEEEFF3E0A0E652
:10008000B0E088278D933197E9F783E389B980E061
:1000900080BD88E18AB9662480E087BBB09B0C9460
:1000A0005900ECEFF0E00E9463000E946A000C949B
:1000B0005F00EEEFF0E00E9463000E946A000C9483
:1000C0004E00F894FFCF0E947A00802D11F005D0E9
:1000D000FACF08958DE001D08AE05D9BFECF8CB908
:1000E00008953197F1F70895689462F80895E894B7
:1000F00062F80895C8953196002008956100620065
:00000001FF
