:100000000C942A001895000018950000189500001F
:10001000189500001895000018950000189500002C
:10002000189500001895000018950000189500001C
:10003000189500001895000018950000189500000C
:1000400018950000189500001895000018950000FC
:10005000189500008FE58DBFC8E3E0E24E2E84E0E6
:100060008EBFD4E0F4E05F2EA89584B7082E877F7A
:1000700084BF88E1992781BD91BDEEEFF3E0A0E652
:10008000B0E088278D933197E9F783E389B980E061
:1000900080BD88E18AB966248FEF87BB0E946D001E
:1000A000A0E6B0E08D9388278C93A0E6B0E0ECE268
:1000B000F1E00E94820011F00C945F00C09AA0E66B
:1000C000B0E0EEE2F1E00E94820011F00C946900D1
:1000D000C0980C944E00F894FFCF88275F9B08953A
:1000E00000C05F9BFECF8CB108953197F1F7089562
:1000F000689462F80895E89462F80895C895319676
:1001000000200895689401C0E894AF93BF938D9147
:1001100016F0919103C00E947E00902D891718F06F
:1001200011F48823A1F7BF91AF9108956100620097
:00000001FF
